:020000040800F2
:10000000882000209901000843200008EF1D000807
:100010004120000849050008C32500080000000031
:1000200000000000000000000000000001010008C6
:100030004B0500080000000045010008A12200084F
:10004000B3010008B3010008B3010008B3010008C0
:10005000B3010008B3010008B3010008B3010008B0
:10006000B3010008B3010008B3010008B3010008A0
:10007000B3010008B3010008B3010008B301000890
:10008000B3010008B301000881040008B3010008AF
:10009000B3010008B3010008B3010008B301000870
:1000A000B301000875230008B3010008B30100087C
:1000B000B3010008B301000881230008B301000860
:1000C000B3010008B3010008B3010008B301000840
:1000D000B3010008B3010008B3010008B301000830
:1000E0004D050008B3010008B3010008DFF80CD08B
:1000F00000F0A4F9004800470526000888200020E9
:10010000224B19680868B0E8F00F80F30988BFF344
:100110006F8F4FF0000080F311884EF00D0E704786
:100120000000000006480068006880F3088862B696
:1001300061B6BFF34F8FBFF36F8F00DF00BF00BF0B
:1001400008ED00E0EFF30980BFF36F8F0F4B1A68E3
:1001500020E9F00F106008B54FF0500080F31188CF
:10016000BFF34F8FBFF36F8F03F02CF94FF00000F8
:1001700080F31188BDE8084019680868B0E8F00FFE
:1001800080F30988BFF36F8F704700BF54000020D1
:10019000EFF3058070470000064880470648004797
:1001A000FEE7FEE7FEE7FEE7FEE7FEE7FEE7FEE727
:1001B000FEE7FEE72D230008ED000008202A04DBFF
:1001C000203A21FA02F00021704721FA02F3D040D0
:1001D000C2F12002914008431946704740EA0103EA
:1001E0009B0703D009E008C9121F08C0042AFAD2ED
:1001F00003E011F8013B00F8013B521EF9D27047B1
:10020000D2B201E000F8012B491EFBD27047002258
:10021000F6E710B513460A4604461946FFF7F0FF05
:10022000204610BD2DE9FE4F81EA030404F000448E
:1002300021F0004100944FF0000B23F0004350EAFE
:1002400001045ED052EA03045BD0C3F30A54C1F345
:100250000A552C44A4F2F3340194A0FB0254C1F3D8
:10026000130141F48011C3F3130343F4801301FB22
:10027000024400FB034E840A970A44EA815447EA89
:100280008357A4FB076802958D0A05FB07854FEA93
:10029000932C04FB0C542705029D4FEA065847EAAD
:1002A0001637B5EB08056EEB070C870E920E47EA82
:1002B000811742EA8312A7FB0201B6EB0B0164EB44
:1002C00000042B0D43EA0C335E1844EB1C50DA4655
:1002D0005146E7FB0201C5F313044FEA0B3343EA2F
:1002E00014534FEA0432019C43EA0603A4F10C04C0
:1002F0000294009CCDE900B400F052F803B0BDE8D0
:10030000F08F00200146F9E770B521F00043034368
:100310000CD0C1F30A550024D5EB040564EB0403AB
:10032000D617AD1AB34102DB0020014670BD20187C
:1003300041EB025170BD0EB540F2334102910021F4
:10034000CDE900110A460B4600F02AF803B000BDC3
:10035000C1F30A5210B5C1F3130140F2FF3341F467
:1003600080119A4201DA002010BD40F233439A42D4
:10037000A2F2334203DC5242FFF720FF10BD90404F
:1003800010BD10B5141E73F1000408DA401C41F1D1
:10039000000192185B411A4301D120F0010010BD09
:1003A0002DE9F04D92469B4611B1B1FA81F202E07F
:1003B000B0FA80F22032904600F052F804460F4620
:1003C00040EA0A0041EA0B0153465A46084313D05B
:1003D000114653EA010019D0C8F140025046FFF718
:1003E000EDFE05460E4650465946424600F038F8A6
:1003F000084305D0012004E020463946BDE8F08DD1
:100400000020054346EAE0762C4337430A9863050B
:10041000E40AA0EB08000022FD0A44EA47540A302F
:1004200002D500200146E9E7010510196941DDE91F
:10043000084500196941BDE8F04DA2E7064C074D9B
:1004400006E0E06840F0010394E8070098471034A4
:10045000AC42F6D3FFF74EFE203E0008403E0008B7
:10046000202A04DB203A00FA02F100207047914074
:10047000C2F1200320FA03F31943904070470000B3
:10048000014800F01EB90000CC00002070B5044601
:1004900000688168C943C9071CD1816821F0010146
:1004A000816000F0D3FB05460FE000BF00F0CEFBFB
:1004B000401B022809D9A06A40F01000A062E06A3F
:1004C00040F00100E062012070BD20688068C043F8
:1004D000C007EBD0002070BDF8B50026044600969A
:1004E00000688168C943C90728D0816841F00101CB
:1004F0008160134813490068B0FBF1F000E0401E32
:1005000000900028FBD100F0A1FB054611E000BFE0
:1005100000F09CFB401B02280BD9A06A40F01000A1
:10052000A062E06A40F00100E06284F824600120EB
:10053000F8BD20688068C043C007E9D10020F8BD3D
:100540005000002040420F00FEE7704710B54FF406
:10055000806000F073FA0B48002400684462094888
:1005600001F0CEF90421074801F0DEFB06480178CE
:10057000491CC9B20170052903D9044A012111702F
:10058000047010BD54010020400000200000002035
:1005900070470000F8B50024009490F82420254608
:1005A000012A12D0012280F824204A681F23072A3A
:1005B0000DD20668776B521E02EB820293409F4376
:1005C0000B6893401F43776319E00220F8BD06686B
:1005D0000D2A0AD2376BD21F02EB820293409F434F
:1005E0000B6893401F43376309E0F76A0D3A02EB4B
:1005F000820293409F430B6893401F43F7620A684F
:10060000072306680A2A0AD3F7680A3A02EB42026D
:1006100093409F438B6893401F43F76008E037691E
:1006200002EB420293409F438B6893401F43376124
:100630000A68102A01D0112A20D1124B02689A426E
:1006400017D193681B0219D4936843F40003936095
:100650000968102912D10C490C4A0968B1FBF2F162
:1006600001EB8101490000E0491E00910029FBD106
:1006700004E0816A41F020018162012480F8245065
:100680002046F8BD002401405000002040420F00E9
:1006900010B5074800F012F80649074C4860A068FA
:1006A000401CA060024800F0A9F90020A06010BD25
:1006B000CC000020D4010020000000200068C06CA5
:1006C000704710B5044600684168890626D5016860
:1006D000890723D5A16AC90603D4A16A41F4007130
:1006E000A1628168C1F34241072910D1217B71B910
:1006F000416821F020014160A06A20F48070A0626E
:10070000A06AC00403D4A06A40F00100A0622046A1
:10071000FFF7BEFF21686FF0120008602068416893
:1007200009062ED5016849072BD5A16AC90603D44D
:10073000A16A41F40051A1628168C1F30231072925
:1007400009D04168490515D48168C1F342410729A0
:1007500010D1217B71B9416821F080014160A06A0C
:1007600020F48050A062A06AC00503D4A06A40F0C3
:100770000100A0622046FFF70BFF21686FF00C001C
:1007800008602068416849060DD50068C0070AD096
:10079000A06A40F48030A062204600F093F82168FF
:1007A0006FF00100086010BD2DE9F0414FF0000727
:1007B00004003D467ED0A06A002628B9E66284F88F
:1007C0002460204600F080F82046FFF75FFEA16A13
:1007D000C90600D420B1A06A40F01000A06269E010
:1007E000A16A21F4885141F00201A1626268E169C5
:1007F000237B0A4347EA43010A43A1684FF4807709
:10080000B94209D0012907D05FF0000194F814C063
:10081000BCF1010F02D00AE03946F7E7F3B1A36A51
:1008200043F02003A362E36A43F00103E362236819
:10083000D3F804C02CF4694C4CEA010CC3F804C092
:1008400021688B68DFF870C003EA0C0313438B60E8
:10085000A168B9420BD0012909D00CE0DFF85CC0D7
:10086000A3690CEB43330B4343F40061DFE7218AB8
:100870000D05A5F580152168CB6A23F470032B4381
:10088000CB62216889680E4B1940914208D1E6621B
:10089000A16A21F0020141F00101A162BDE8F081ED
:1008A000A06A20F0020040F01000A062E06A40F070
:1008B0000100E0620120F1E7FDF7E1FF00E0FFFF4A
:1008C000FE0E1FFF7047000000B585B000210091AB
:1008D00001910291039100681249884220D1124887
:1008E000816941F400718161816901F400710491B1
:1008F000816941F0040181618069694600F004006A
:1009000004901020009003200190084800F0A2F805
:1009100000221146122000F01FFA122000F00EFAF9
:1009200005B000BD00240140001002400008014055
:1009300070B5044690F8240001280DD0012084F8F9
:1009400024002046FFF7C8FD02004FF0000005D04C
:1009500084F82400104670BD022070BDA16A40F6E4
:100960000163994341F48071A162224D23682249B9
:10097000AB4218D10E6816F4702F14D0A66A46F454
:100980008016A6620E68760505D5A66A26F400567E
:1009900046F48056A662A66AF6040AD5E66A26F0F0
:1009A0000606E66206E0A66A26F48016A6625E687F
:1009B000E9E7E06284F824006FF002001860206824
:1009C000436843F02003436020688368C3F34243D5
:1009D000072B05D1A84208D1096811F4702F04D063
:1009E000816841F480118160B4E7816841F4A0011D
:1009F000F9E70000002801400424014010B5044636
:100A000090F82400012807D0012084F82400204613
:100A1000FFF73CFD10B10CE0022010BD21684A68D0
:100A200022F020024A60A16A21F4885141F00101BC
:100A3000A162002184F8241010BD7047044910B54C
:100A40000A68024202D00860FFF7F7FF10BD0000FD
:100A5000140401402DE9F84FDFF8B891002409F1A2
:100A6000040A0AF1040B23460F270BF1040EC9E018
:100A70000125A5402A40AA427DD1674ED1F804C085
:100A8000ACEB0608B44532D014DCBCF1030F3AD00D
:100A900009DCBCF1000F2AD0BCF1010F1CD0BCF165
:100AA000020F31D11DE0BCF1110F17D0BCF1120FB4
:100AB0002AD119E0B8F5881F19D006DCB8F5803FB7
:100AC00015D0B8F5801F1FD111E0B8F5001F0ED06A
:100AD000B8F5041F18D10AE0CB6815E0CB681B1DE0
:100AE00012E0CB6808330FE0CB680C330CE08B6866
:100AF0002BB1012B4FF0080303D0456104E0042320
:100B000002E0056100E00023FF2A01D8064601E06B
:100B100000F104064FEA840501D9A5F12005D6F8B5
:100B2000008007FA05FC28EA0C0803FA05F548EAF4
:100B30000508C6F800804D68ED0062D5374DAE69F6
:100B400046F00106AE61AD6924F0030605F001052B
:100B50000095334D06EB050CDCF80850A607360F60
:100B600007FA06F825EA0805DFF8B880404503D102
:100B70004FF0000817E044E0DFF8AC80404502D1B8
:100B80004FF001080FE0DFF8A480404502D14FF09C
:100B9000020808E0DFF89880404502D14FF00308D2
:100BA00001E04FF0040808FA06F848EA0508CCF816
:100BB00008804D68D9F80060ED034D4601D5164315
:100BC00000E096432E604D68DAF80060AD035546AC
:100BD00001D5164300E096432E604D68DBF80060B7
:100BE000ED025D4601D5164300E096432E604D6848
:100BF000DEF80060AD02754601D5164300E096436D
:100C00002E60641C0D682A46E5407FF431AFBDE8D4
:100C1000F88F000000040140000011100010024095
:100C20000000014000080140000C0140001001409C
:100C300000140140C2680A4201D04161704701615D
:100C400070470AB1016170470904FBE701488068F9
:100C50007047000044000020024881680278114477
:100C60008160704744000020074810B5016841F0DA
:100C700010010160032000F08FF8002000F006F85A
:100C800000F03EF8002010BD0020024000B50146F3
:100C900087B000221E2000F05FF81E2000F04EF802
:100CA0001348C16941F00401C161C06905A900F0A0
:100CB00004000690684600F08DF900F0ABF90D498C
:100CC0004000B0FBF1F10D480B4A491E0260416043
:100CD00040F2E7320021C0E90321816000F0CAFD43
:100CE00010B1012007B000BD044800F009FEF9E78B
:100CF0000010024040420F00000800407403002032
:100D00000C4808B5816941F001018161816901F0F8
:100D100001010091C16941F08051C161C06900F0D9
:100D2000805000900448416821F0E06141F000717A
:100D3000416008BD0010024000000140002809DBAE
:100D400000F01F02012191404009800000F1E020E5
:100D5000C0F8001170470000F0B40E4B1B680C4641
:100D6000C3F30223C3F10705042D00D90425191D7F
:100D7000072901D2002300E0DB1E012606FA05F157
:100D8000491E214099409E40761E16403143F0BCDA
:100D900001F018BC0CED00E0064900F007020868FD
:100DA0004FF6FF03184040EA0220034A1043086050
:100DB000704700000CED00E00000FA052DE9F84353
:100DC00005460078354CC00754D0E0690026C000C5
:100DD00008D4E06940F08050E061E069012600F04D
:100DE000805000902E480168C90512D401688046E1
:100DF00041F480710160FFF729FF074605E000BF5D
:100E0000FFF724FFC01B642823D8D8F80000C005D2
:100E1000F6D5206A10F4407021D0A98801F4407101
:100E200081421CD0206A1F49012220F440700A60D0
:100E300000220A602062C00711D0FFF707FF0746B3
:100E400041F2883808E000BFFFF700FFC11B4145B1
:100E500002D90320BDE8F883206A8007F4D5206A10
:100E6000696820F44070084320621EB1E06920F0F8
:100E70008050E0612878800705D56068A96820F473
:100E80004040084360602878C00605D56068E9687E
:100E900020F48000084360600020DBE7001002407F
:100EA00000700040400442422DE9F0470F46050023
:100EB00061D0434E306800F00700B84209D2306874
:100EC00020F0070038433060306800F00700B84277
:100ED00051D128683B4C810712D5400703D5606883
:100EE00040F4E06060602878000703D5606840F453
:100EF000605060606068A96820F0F000084360609E
:100F00002878C00728D06868012810D021680228F6
:100F100010D0890700292EDA616821F0030101430E
:100F20006160FFF793FE804641F288390DE0216849
:100F30008903EFE78901EDE7FFF788FEA0EB0801E1
:100F4000494502D90320BDE8F0876068696800F070
:100F50000C00B0EB810FEFD1306800F00700B84211
:100F60000BD9306820F0070038433060306800F05B
:100F70000700B84201D00120E5E72878400705D5F1
:100F80006068E96820F4E060084360602878000742
:100F900006D56068296920F4605040EAC1006060AD
:100FA00000F048F86168084AC1F30311515CC84079
:100FB0000649086006480068FFF768FE0020C2E79F
:100FC0000020024000100240EC3D000850000020CC
:100FD000480000200F2202600C4A536803F003030C
:100FE0004360536803F0F0038360536803F4E063E5
:100FF000C36052684FF4E06303EAD202026104481E
:10100000006800F007000860704700000010024010
:10101000002002400448054900684968044AC1F3B9
:101020000221515CC840704750000020001002406F
:10103000FC3D000812A185B00FC98DE80F0014A077
:10104000144A006804905168134801F00C03042B03
:1010500010D0082B0ED1C1F38343C9031DF8030040
:101060000AD5516804AAC1F34041515C0A4A504371
:10107000B0FBF1F005B0704708494843FAE70000BB
:1010800002030405060708090A0B0C0D0E0F1010C9
:10109000010200000010024000127A0000093D0029
:1010A0002DE9F84F040070D02078C04DC00749D01A
:1010B0006868C0F38100012807D06868C0F3810028
:1010C000022809D16868C00306D52868800339D58D
:1010D00060680028E7D035E06068B0F5803F0BD04D
:1010E00010B1B0F5A02F11D0286820F4803028600E
:1010F000286820F4802002E0286840F480302860CE
:10110000606890B1FFF7A2FD06460AE0286840F447
:1011100080202860F0E700BFFFF798FD801B64285F
:1011200073D828688003F7D50CE0FFF78FFD0646DB
:1011300005E000BFFFF78AFD801B6428F0D828680F
:101140008003F7D420789A4E80074FF001094FF0C2
:10115000000839D5686810F00C0F07D06868C0F334
:101160008100022809D16868C00306D42868800776
:1011700014D52069012808D110E02069B0B1C6F863
:101180000090FFF763FD074605E00AE1FFF75EFD0B
:10119000C01B0228C4D828688007F7D52868616971
:1011A00020F0F80040EAC10028600DE0C6F8008099
:1011B000FFF74CFD074604E0FFF748FDC01B02287F
:1011C00023D828688007F7D4207800072CD57948E1
:1011D000A169D9B1C0F80090FFF738FD074604E0D7
:1011E000FFF734FDC01B02280FD8686A8007F7D5C7
:1011F00071484FF4FA510068B0FBF1F0009000BF65
:101200000098411E0091FAD20EE080E0C0F8008004
:10121000FFF71CFD074604E0FFF718FDC01B02287E
:1012200075D8686A8007F7D42078400760D5E869E8
:101230000027C00008D4E86940F08050E861E86900
:10124000012700F0805000905C480168C90513D464
:101250000168834641F480710160FFF7F7FC824624
:1012600006E000BFFFF7F2FCA0EB0A0064284ED8AE
:10127000DBF80000C005F5D5E06801280AD008B108
:10128000052813D0286A20F001002862286A20F07F
:10129000040002E0286A40F001002862E06841F2A0
:1012A000883B98B1FFF7D2FC82460BE0286A40F0F9
:1012B00004002862EEE700BFFFF7C8FCA0EB0A01BC
:1012C00059455AD8286A8007F6D50CE0FFF7BEFCCE
:1012D000824605E0FFF7BAFCA0EB0A0159454CD85D
:1012E000286A8007F6D41FB1E86920F08050E861D1
:1012F000E06988B36968C1F38101022944D00228FA
:10130000C6F8608004D0FFF7A1FC044638E034E062
:10131000FFF79CFC074604E0FFF798FCC01B02287F
:101320002BD828688001F7D4206AB0F5803F05D11A
:101330006868A16820F4003008436860D4E90801B7
:101340000843696821F4741108436860C6F8609026
:10135000FFF77CFC044606E025E000BFFFF776FCC3
:10136000001B022809D828688001F7D51BE000BFC0
:10137000FFF76CFC001B022802D90320BDE8F88FA0
:1013800028688001F4D40EE00128F7D06868226A4A
:1013900000F48031914204D1616A00F470108842F7
:1013A00001D00120EAE70020E8E700000010024039
:1013B0000000424280044242500000200070004081
:1013C00070B5040005D00025A56294F8510010B155
:1013D00006E0012070BD84F85050204600F02EF841
:1013E000022084F851002068016821F0400101606A
:1013F000D4E901010843D4E90312114308436169A8
:101400000843218B01F400710843E1690843216A14
:101410000843A16A084321680860A069042101EA21
:101420001040216848602068C16921F40061C161F1
:101430006565012084F85100002070BD70B586B04C
:101440000024009401940294039400681349884294
:1014500022D11348816941F480518161816901F48D
:1014600080510491816941F0040181618069022504
:1014700000F0040004902020CDE900050320094E6F
:10148000039069463046FFF7E5FA40208DE83100C9
:1014900069463046FFF7DEFA06B070BD0030014005
:1014A00000100240000801402DE9F84F0446406852
:1014B0000025984616460F464FF0040BB0F5827F84
:1014C00001D1A06888B194F85000012818D00120FB
:1014D00084F85000FFF7BAFB814694F851004FF0B2
:1014E000000A01280ED002257DE084F851B0134691
:1014F0000A462046CDF8008000F07EF8BDE8F88F5F
:101500000220FBE7002F6DD0002E6BD084F851B085
:10151000C4F854A0A763A687E687C4F830A0A4F84F
:1015200034A0A4F836A0C4F840A0C4F844A0A06831
:10153000B0F5004F04D12068016821F480410160BA
:1015400020680168490603D4016841F04001016048
:10155000E068D8B139E020688168C90709D0007B0C
:10156000A16B0870A06B401CA063E08F401EE08759
:101570000CE0FFF76BFBA0EB0901414503D3B8F189
:10158000FF3F03D036E0B8F1000F33D0E08F0028E2
:10159000E1D11DE020688168C90709D0C068A16B4E
:1015A0000880A06B801CA063E08F401EE0870CE0E9
:1015B000FFF74CFBA0EB0901414503D3B8F1FF3F16
:1015C00003D017E0B8F1000F14D0E08F0028E1D16C
:1015D0004A464146204600F035FD08B120206065AE
:1015E000606D00B10125012084F8510084F850A0FD
:1015F000284683E70325F6E72DE9F84F044690F8DF
:10160000500000270A9E1D4692468B464FF0010966
:1016100001280ED0012084F85000FFF717FB804608
:1016200094F85100616801280CD0B1F5827F07D190
:1016300002E00220BDE8F88FA16809B9042801D0B2
:101640000227C2E0BBF1000F27D0BAF1000F24D06F
:101650001DB394F85100042802D0052084F85100ED
:1016600000206065C4F838A0E587A587C4F830B0CD
:10167000E586A5862064606420680168490603D475
:10168000016841F040010160E068B0F5006F6068FA
:1016900005D0E8B3012D46D07FE0012795E008B1E1
:1016A000012D39D1206B21680088C860206B801C17
:1016B0002063E08E401EE0862EE020688168890766
:1016C0000FD5E18E69B1B9F1010F0AD1216B0988FB
:1016D000C160206B801C2063E08E401EE0864FF0CE
:1016E000000920688168C9070CD0E18F51B1C0683A
:1016F000A16B0880A06B801CA063E08F401EE08778
:101700004FF00109FFF7A2FAA0EB0800B04200E099
:1017100009E001D3701C50D1E08E0028CDD1E08FBC
:101720000028CAD13FE0206B216800780873206B45
:10173000401C2063E08E401EE0862EE02068816819
:1017400089070FD5E18E69B1B9F1010F0AD1216B7B
:1017500009780173206B401C2063E08E401EE086F8
:101760004FF0000920688168C9070CD0E18F51B1A2
:10177000C068A16B0870A06B401CA063E08F401E86
:10178000E0874FF00109FFF761FAA0EB0800B042D3
:1017900002D3701C01D010E07EB1E08E0028CDD1C4
:1017A000E08F0028CAD142463146204600F078FC3E
:1017B00028B101272020606507E0032705E0A06825
:1017C00018B92068C16880680090012084F8510031
:1017D000002084F8500038462CE77047704710B559
:1017E00090F83C20012A22D0012280F83C20CA68CF
:1017F0008C6822F4407222434C6822F480622243B7
:101800000C6822F4006222430C6922F480522243C5
:101810004C6922F400522243C969002322F4804219
:101820000A4301684A6480F83C30002010BD022061
:1018300010BD70B590F83C20012A19D0012400F8A1
:101840003C4F0222427050F83C3C5A689D6822F09E
:1018500070060A684968324325F0800529435A60BA
:1018600050F83C2C9160447000210170084670BD16
:10187000022070BD10B5040003D094F83D0010B1F3
:1018800007E0012010BD002084F83C00204600F055
:101890000DF8022084F83D00211D206800F076FD3F
:1018A000012084F83D00002010BD000008B5114A59
:1018B00001681148914211D1816941F4006181614F
:1018C0008069002200F40060009011461920FFF7A3
:1018D00043FABDE808401920FFF730BA074A9142A1
:1018E00007D1C16941F00201C161C06900F0020085
:1018F000009008BD002C0140001002400004004090
:101900000168CA6842F00102CA600068816801F09B
:101910000701062903D0016841F0010101600020A0
:1019200070470168CA6822F00102CA600068016A53
:1019300041F21112114207D1016A9210114203D1F2
:10194000016821F0010101600020704770B5044674
:1019500090F83C00012817D0012584F83C50022063
:1019600084F83D002068826822F0770222F47F42EA
:1019700082600868502830D00DDC20284DD005DC6E
:1019800098B310283BD148E0022070BD302844D0E5
:10199000402834D139E0602828D0702806D0B0F52E
:1019A000805F2CD0B0F5005F29D10AE0CB68D1E987
:1019B0000121206800F02DFD2068816841F0770149
:1019C00009E0CB68D1E90121206800F022FD206800
:1019D000816841F48041816011E0CA6849682068EB
:1019E00000F0CCFD5021206807E016E0CA68496885
:1019F000206800F0D4FD6021206800F014FD84F818
:101A00003D50002084F83C0070BDCA6849682068D9
:101A100000F0B4FD40212068EFE72268014610463F
:101A2000EBE7704770B50446006801694FF00005A8
:101A3000C943890715D4C168C943890711D4E91E70
:101A4000016101202077206880698007204602D04C
:101A5000FFF7E7FF04E000F0E1F8204600F063F94B
:101A6000257720680169C943490717D4C168C9436C
:101A7000490713D46FF00401016102202077206828
:101A8000806910F4407F204602D0FFF7CAFF04E0CF
:101A900000F0C4F8204600F046F925772068016977
:101AA000C943090716D4C168C943090712D46FF0A6
:101AB00008010161042020772068C0698007204662
:101AC00002D0FFF7AEFF04E000F0A8F8204600F0D7
:101AD0002AF9257720680169C943C90617D4C16866
:101AE000C943C90613D46FF01001016108202077A3
:101AF0002068C06910F4407F204602D0FFF791FFB4
:101B000004E000F08BF8204600F00DF925772068FE
:101B10000169C943C90708D1C168C943C90704D1CC
:101B2000891E0161204600F045F920680169C9431A
:101B3000090609D4C168C943090605D46FF08001BC
:101B400001612046FFF749FE20680169C943490643
:101B500009D4C168C943490605D46FF04001016149
:101B6000204600F043F920680169C94389060BD477
:101B7000C168C943890607D46FF02001016120467E
:101B8000BDE87040FFF72ABE70BD000000B585B00B
:101B9000002100910191029103911A4B02681A48A9
:101BA00002219A4211D1826942F004028261806965
:101BB000039100F0040004900802CDE90001694699
:101BC0001248FEF747FF05B000BD114B9A42FAD10B
:101BD000826942F0080282618069039100F0080086
:101BE00004903020CDE9000169460A48FEF732FF33
:101BF0000948416821F4406141F0E06141F400612D
:101C00004160E0E7002C0140001002400008014064
:101C100000040040000C014000000140704770B516
:101C2000044690F83C000D4601280DD0012684F8AA
:101C30003C60022084F83D0042B1042A18D0082AF2
:101C40002AD00C2A4DD139E0022070BD206800F066
:101C5000F3FB2068816941F0080181612068816996
:101C600021F004018161206881692A69114311E032
:101C7000206800F009FC2068816941F400618161FD
:101C80002068816921F480618161206881692A6905
:101C900041EA0221816124E0206800F021FC2068F3
:101CA000C16941F00801C1612068C16921F00401E6
:101CB000C1612068C1692A69114311E0206800F000
:101CC0003BFC2068C16941F40061C1612068C169C1
:101CD00021F48061C1612068C1692A6941EA022159
:101CE000C16184F83D60002084F83C0070BD10B5EF
:101CF000040003D094F83D0010B107E0012010BDAE
:101D0000002084F83C00204600F00CF8022084F803
:101D10003D00211D206800F039FB012084F83D00C2
:101D2000002010BD7047704710B5044600680122BE
:101D300000F062FB09492068884203D1416C41F4FC
:101D4000004141642068816801F00701062903D041
:101D5000016841F001010160002010BD002C01402C
:101D600010B504460068002200F046FB104B41F21B
:101D7000111120688A10984209D1036A0B4206D1DA
:101D8000036A134203D1436C23F400434364206885
:101D9000036A0B4206D1016A114203D1016821F0A6
:101DA00001010160012084F83D00002010BD000009
:101DB000002C014010B5044600680949884201D151
:101DC000FEF74AFF07492068884208D104210648E7
:101DD000FFF7C6FFBDE810400348FFF7A2BD10BDE6
:101DE00000080040002C0140540100207047FEE72D
:101DF0003EB500210E48009101910C4A029102600B
:101E000001248160047301754FF460220461C26192
:101E10004160FEF7C9FC0420CDE9000402200290D5
:101E200069460348FEF7B6FB3EBD000000240140B2
:101E3000CC00002030B585B00024204800940194E7
:101E400002940394816941F020018161816901F06C
:101E500020010491816941F004018161816901F0EF
:101E600004010491816941F0080181618069144D88
:101E700000F008000490002280212846FEF7E1FED1
:101E8000802000900120CDE90104022003906946E2
:101E90002846FEF7DFFD281500900A48CDE9010429
:101EA00069460948FEF7D6FD002211462820FEF7B4
:101EB00053FF2820FEF742FF05B030BD001002405E
:101EC0000008014000003110000C01400D480C4991
:101ED0004FF4007201604FF4827141604FF48061F1
:101EE00081600021C1600161C0E905123022C0E9B2
:101EF0000721416281620A21C162FFF761BA0000D5
:101F000000300140FC00002030B595B000240F9453
:101F100010941194129413941C2108A81494FEF7A1
:101F200076F920216846FEF772F9224D2048286094
:101F30004720C5E9010442F24760C5E903046C612A
:101F40002846AC61FFF796FC4FF480500F900FA924
:101F50002846FFF7FBFC2846FFF7C9FE139413A998
:101F600028461494FFF765FC7020CDE908040A9414
:101F70000B940C940D94042208A928460E94FFF7A4
:101F80004EFE2868816921F40061816100944FF45C
:101F90000050CDE904400294019403946946284618
:101FA0000794FFF71CFC2846FFF7F0FD15B030BD85
:101FB000002C01405401002010B58EB0002407947D
:101FC000089409940A940B941C2168460C94FEF71B
:101FD0001EF91A48184901604721C0E9011444F666
:101FE0001F61C0E903148461FFF744FC4FF4805083
:101FF000079007A91148FFF7A9FC1048FFF777FEE3
:102000000B940BA90D480C94FFF713FC6020009073
:1020100042F20F70CDE9010400226946074804949A
:10202000FFF7FDFD042269460448FFF7F8FD034869
:10203000FFF7ACFD0EB010BD00040040940100207D
:10204000FEE77047F8B5044640684FF48273984243
:1020500017D1A0684FF48065B0F5004F01D0A842B9
:102060000FD12068066826F0400606606068984236
:1020700007D1A068A84204D100920B46002201219A
:1020800003E000920B4600228021204600F018F861
:10209000002804D0606D40F0200060650320F8BD8A
:1020A00038B50B46009204460022802100F008F863
:1020B000002804D0606D40F020006065032038BD2A
:1020C0002DE9F0411D4617460E460446DDF81880FE
:1020D00008E0681C06D0FEF7B9FDA0EB0800A84296
:1020E0000BD255B12068806836EA000030D000205D
:1020F000B842EED10020BDE8F0812068416821F0AF
:10210000E00141606068B0F5827F0BD1A068B0F556
:10211000004F02D0B0F5806F04D12068016821F033
:1021200040010160A06AB0F5005F09D12068016834
:1021300021F4005101602068016841F40051016000
:10214000012084F85100002084F850000320D2E7D9
:102150000120CDE7DFF8C080DFF8C0B0304C4FF48D
:102160007A7942F2486A0027D8F80400A061FEF7A5
:10217000E2F80E4605465A462A4BFEF753F8FEF79C
:10218000E7F8E061284631466FF00302FEF7BCF83D
:10219000FEF7DEF820622448FEF7CAFB012000F0BB
:1021A00065FAE169494504D24FF4FA70A06303204F
:1021B00003E04FF47A60A0630520E06320780128F3
:1021C000D2D1D4E90802801A4042A062E26A0244F5
:1021D000E262A36B4343E06B00FB02308013206399
:1021E00008440D4A6063E168103242F82100491C3E
:1021F000E160642900D9E76058B1504502D9C4F8BC
:1022000034A0E7620449606B8039096888632770ED
:10221000AAE701206063F4E7D40100209A99999914
:102220000000002099990340CC000020194D184E61
:102230002C1F6FF001074FF4FA78002280213046FE
:10224000FEF7FFFC012000F011FA142302221149CD
:102250001148FFF729F920B14FF400510F48FEF75C
:10226000E9FC012280213046FEF7EBFC28780102D0
:1022700068780843C0086080FEF75DF83A46FEF7CC
:1022800043F8FEF765F86062404600F0EFF9D4E7E6
:102290000008014004000020FC0000200010014064
:1022A00010B5502080F31188BFF34F8FBFF36F8FAD
:1022B00001F0D6FB18B104494FF0805008600020AF
:1022C00080F3118810BD000004ED00E030B593B03C
:1022D00028216846FDF79BFF14210AA8FDF797FF08
:1022E000002401200F9410941194010412948DE89D
:1022F000130004904FF4E010CDE908100225079573
:102300006846FEF7CDFE0F20CDE90A056802CDE94B
:102310000C4002210AA80E94FEF7C6FDA8031190F6
:102320000F950FA8FEF74AFD13B030BD0D480168A8
:1023300041F00101016041680B4A114041600168B0
:102340000A4A11400160016821F48021016041685E
:1023500021F4FE0141604FF41F0181600449C00374
:1023600008607047001002400000FFF8FFFFF6FE13
:1023700008ED00E00148FFF755BB000054010020C4
:102380000148FFF74FBB000074030020F0B502685E
:10239000164B174C174D4FF08047984205D0B84266
:1023A00003D0A04201D0A84203D122F070064A68AF
:1023B0003243984205D0B84203D0A04201D0A8428F
:1023C00003D122F44074CA6822434C6922F080028F
:1023D000224302608A68C2620A688262984201D11E
:1023E0000969016301214161F0BD0000002C014039
:1023F000000400400008004010B501F01F03012157
:10240000046A99408C430462016A9A401143016254
:1024100010BD10B5846842EA032224F47F440A43C5
:102420002243826010BD826822F070020A4342F0AB
:10243000070181607047000030B5026A22F0010296
:102440000262026A4368846924F073050C682C43B5
:1024500022F002058A682A430A4DA8420BD122F0D5
:102460000805CA6823F440732A434D6922F0040228
:102470001D438B692B434360846149684163026259
:1024800030BD0000002C014030B5026A22F010027D
:102490000262026A436884690D6824F4E64444EAEF
:1024A00005248D6822F0200242EA05120B4DA84255
:1024B0000ED1CD6822F0800242EA05124D6923F464
:1024C000406343EA85038D6922F0400243EA8503B5
:1024D0004360846149688163026230BD002C014021
:1024E00030B5026A22F480720262036A4268C469EB
:1024F00023F4007324F073050C682C438D6843EAC1
:1025000005230C4DA8420ED1CD6823F4006343EAA5
:1025100005234D6922F4405242EA05128D6923F4E5
:10252000806342EA05124260C4614968C163036284
:1025300030BD0000002C014030B5026A22F4805208
:102540000262046A4268C3690D6823F4E64343EA01
:1025500005238D6824F4005444EA0534064DA8424E
:1025600004D14D6922F4804242EA85124260C3617F
:1025700049680164046230BD002C014010B5036A53
:10258000046A24F001040462846924F0F00444EA3B
:10259000021423F00A020A438461026210BD10B5DE
:1025A000036A23F0100303628369046A23F470430F
:1025B00043EA023224F0A00343EA0111826101627E
:1025C00010BDFEE70907090E002804DB00F1E0203A
:1025D00080F80014704700F00F0000F1E02080F850
:1025E000141D704702E008C8121F08C1002AFAD162
:1025F00070477047002001E001C1121F002AFBD183
:1026000070470000FEF730FBFFF760FEFFF7F0FBBE
:10261000FFF75CFCFFF7D0FCFFF776FCFFF70AFC46
:1026200000210D48FFF780FB04210B48FFF77CFBDE
:1026300000F036F8094A0021094800F06DF8094C0D
:10264000064A002120612432074800F065F86061E5
:1026500000F042F8FEE7000094010020A43D0008CD
:1026600055210008000000202D22000810B5EFF3CE
:10267000058149B9EFF3108131B908490968022988
:1026800005D1EFF3118111B16FF0050403E00024CF
:1026900008B100F0E3FD204610BD0000A4000020BA
:1026A000EFF3058058B9EFF3108040B90949086885
:1026B000022801D030B109E0EFF3118030B16FF0A2
:1026C0000500704701200860002070474FF0FF3080
:1026D00070470000A400002010B5EFF3058060B93A
:1026E000EFF3108048B90B490868022802D001288E
:1026F00006D00BE0EFF3118040B16FF0050010BD84
:102700000220086000F012FE002010BD4FF0FF30E4
:1027100010BD0000A4000020F0B585B04FEA010311
:102720004FF00004EFF305810394A1BBEFF3108198
:1027300089BB21490968022902D1EFF3118151BBFC
:1027400048B3802618218DF8104004AD42B31768B5
:1027500007B13D4697691FB139467F1E382F02D217
:102760001779FF0702D0002005B0F0BD576907B107
:10277000BE08D2F808C0BCF1000F0DD0D4685C2CA4
:1027800018D312693AB137B18DE80610324629469E
:1027900001F027F903900DE0D7685FB912694AB9D3
:1027A00003AACDE90012B2B2294601F0EDF80128E2
:1027B00000D003940398D7E7A40000202DE9F0414E
:1027C000134C0F46054666692068001D00F016FC94
:1027D000681C07D137B12168BDE8F0410D48091DDB
:1027E00000F05CBC20683544B5424560216805D2E4
:1027F000A068BDE8F041091D00F038BC6068091D03
:1028000000F034FC206B854200D22563BDE8F081E6
:1028100054000020A40800202DE9F041054600F0F6
:1028200049FC2D4C2069401C206120682B4F10B1C1
:10283000E06930B32BE025602069012827D100260C
:1028400006EB860007EB800000F002FC761C382EB9
:10285000F6D3234800F0FCFB2148143000F0F8FBCD
:102860001F48283000F0F4FB1D483C3000F0F0FB1E
:102870001B48503000F0ECFB194860601430A06039
:1028800005E02068E96AC06A884200D82560E06AED
:10289000401CE0626864E86AA169884200D9A061CE
:1028A00000EB800007EB8000291D00F0F7FB00F033
:1028B00021FCE06900280CD02068E96AC06A8842DF
:1028C00007D208494FF080500860BFF34F8FBFF325
:1028D0006F8FBDE8F081000054000020F403002059
:1028E0005408002004ED00E038B500F0E3FB104C84
:1028F000A068C8B90F4800F0ABFB0E48143000F0D8
:10290000A7FB0C482060143060600A4B002028337D
:10291000009003F1500210210A2000F0D9FDA060C0
:1029200010B105A100F064FCBDE8384000F0E2BB46
:1029300090000020B8080020546D72510000000083
:1029400030B4026C0B46002A0BD0C1681144C16040
:102950004468A14201D30168C16030BC1846FDF74C
:102960003DBC30BC70472DE9F041856B17460446ED
:102970000026026C82B1C7B1E068FDF72FFCE16868
:10298000206C091AE1602268914202D26168081A3B
:10299000E060022F16D017E02068A8B9606801F047
:1029A000C3F80646002060600EE0A068FDF716FC44
:1029B000216CA0680844A0606168884204D3206844
:1029C000A06001E005B16D1E6D1CA5633046BDE839
:1029D000F08110B5044690F8590058B101280CD088
:1029E00002280FD0502080F31188BFF34F8FBFF320
:1029F0006F8FFEE7206B00F091FB2046BDE8104092
:102A000000F08CBB10BD000010484FF4406142073D
:102A100006D0C01D0D4920F00700411AC1F54061E4
:102A20000B4A00230144C2E900030839103A21F09F
:102A3000070111604B600B600B1AC0E90013936033
:102A40004FF000405360D0607047000088100020B5
:102A5000B8000020144E154CA6F29C474FF0805849
:102A6000DFF84C9012E000BF00F024FBF068C5686E
:102A7000281D00F0C3FA2069401E2061E068401E56
:102A8000E06000F037FB2846FFF7A3FFE06800286E
:102A9000EAD138680128F9D9C9F80080BFF34F8F0F
:102AA000BFF36F8FF2E70000900800205400002071
:102AB00004ED00E070B51D46049C51B1C4F800203F
:102AC000C4E90F010121204600F036FD84F84C5086
:102AD00070BD2460F4E72DE9F0470E46DDE9098476
:102AE0001746824691009946089DA522206BFDF766
:102AF00087FB6FF00301206B01EB8701084420F096
:102B00000707780707D0502080F31188BFF34F8F55
:102B1000BFF36F8FFEE72218315C82F83410315C0E
:102B200011B1401C1028F6D3002684F84360382DDC
:102B300000D33725E562C4E91356201D00F093FA4F
:102B400004F1180000F08FFA2461C5F138006462C6
:102B5000A061666584F858604A465146384600F0E0
:102B60003BFA2060B8F1000F01D0C8F80040BDE882
:102B7000F087000030B5114900E011460A68824232
:102B8000FBD34B685C18844203D14068184448600A
:102B9000084643681C18944209D1084C103C24682C
:102BA000A24209D052681A4442600A681268026060
:102BB000814200D0086030BD0460F9E7B800002011
:102BC00070B5002441600B4D0061914206D8D11AC6
:102BD0008269914206D2011D686807E09A4203D2D9
:102BE000994201D3012403E0011D286800F03EFA58
:102BF000204670BD9000002010B5044600F05AFA3F
:102C0000A06B28B15FF0000400F074FA204610BDFC
:102C10000124F9E730B589B0304D55E0049800281B
:102C200006DADDE90601059A9047049800284BDB97
:102C3000069C606910B1201D00F0E0F902A800F0C8
:102C4000B9F8024604980A283ED2DFE800F00505EC
:102C5000053D263705053D260598A1690346014433
:102C60002046FFF7ADFF00B3616A20468847E06960
:102C7000012829D1002000900598A169002342185D
:102C80001946204601F05AF878B9502080F311888F
:102C9000BFF34F8FBFF36F8FFEE70598A06128B198
:102CA000811813462046FFF78BFF0DE0502080F37C
:102CB0001188BFF34F8FBFF36F8FFEE794F82C009E
:102CC00010B9204600F02AFA002204A9A86800F0F2
:102CD00085FD0028A2D109B030BD00009000002081
:102CE0002DE9FC410F46054600F064FB01A800F009
:102CF00061F80446019818B100F08EFFBDE8FC8130
:102D0000224EAFB170680068A8B30027291B3A466D
:102D1000B06800F081FA00F07FFF0028EED11C4976
:102D20004FF080500860BFF34F8FBFF36F8FE5E720
:102D3000A542EBD800F070FF30682746C068C46831
:102D4000201D00F05BF9E069012810D1A0692B4635
:102D500041193A462046FFF733FF40B100200346B1
:102D6000014600902A46204600F0E8FF20B1616A43
:102D700020468847C2E707E0502080F31188BFF360
:102D80004F8FBFF36F8FFEE70127BFE79000002052
:102D900004ED00E006484168096829B14168C96846
:102DA000C9684968016370474FF0FF31FAE70000D6
:102DB0005400002070B5054600F04CFE064E044657
:102DC0003069844203D200F009F8012000E00020BD
:102DD00028602046346170BD90000020F8B5194D80
:102DE0001FE0C068C4680668201D00F007F9616A2A
:102DF00020468847E069012813D1A0693044B042D9
:102E000006D924616060211D286800F02FF908E0D0
:102E100000200346014600903246204600F08EFF17
:102E200038B1286801680029DBD16968C5E900105C
:102E3000F8BD502080F31188BFF34F8FBFF36F8F21
:102E4000FEE700009000002008484068401C4FF05A
:102E5000500080F3118804D0BFF34F8FBFF36F8F02
:102E6000FEE7BFF34F8FBFF36F8FFEE7C000002078
:102E7000074C2068016841B1C0680021D0F800000B
:102E8000FFF72EFFFFF7C6FEF3E701210020F7E76B
:102E9000900000202DE9F041044600F00BF994F970
:102EA000455004F1240609E0606A48B1304600F05C
:102EB0007BFE08B100F000FA6D1E6DB2002DF3DC50
:102EC0004FF0FF3684F8456000F014F900F0F2F896
:102ED00094F9445004F1100709E0206948B13846DC
:102EE00000F062FE08B100F0E7F96D1E6DB2002D32
:102EF000F3DC84F84460BDE8F04100F0FBB800006A
:102F00002DE9F0410546002700F054FA314E3068B3
:102F100008B9FFF779FDF06805424BD1C5B3083514
:102F200068070ED005F00700C0F1080005446807E7
:102F300007D0502080F31188BFF34F8FBFF36F8FFE
:102F4000FEE72DB37068854234D822481030014620
:102F50000C6801E020460C466168A94202D2216853
:102F60000029F7D131688C4224D0076821680160BC
:102F700060680837411B10290FD96019420708D033
:102F8000502080F31188BFF34F8FBFF36F8FFEE7A0
:102F900010E041606560FFF7EDFD61687068401A00
:102FA0007060B268904200D2B060F06801430020C7
:102FB000C4E9000100F030FE780707D0502080F30C
:102FC0001188BFF34F8FBFF36F8FFEE73846BDE820
:102FD000F0810000A800002010B5031F4FF080749E
:102FE0001C601B1F21F001011960191F024B0B60AF
:102FF000143940380A6010BD492E0008D0E901326A
:1030000001699A60D0E901235A604A68824201D17D
:1030100082684A60002202610868401E08600868F1
:1030200070470000034B036003F15C0008608020E0
:1030300010607047D0090020044B036003F15C006E
:1030400008604FF480701060704700002C0C002066
:1030500000F108014FF0FF32C0E90112C1600161C7
:1030600000210160704700210161704730B50B6895
:103070005A1C02D000F1080202E0026904E0224674
:10308000546825689D42FAD953684B6099608A60FC
:10309000516008610168491C016030BD42684A60A6
:1030A00093688B6093685960916008610168491C5E
:1030B00001607047502080F31188BFF34F8FBFF33A
:1030C0006F8F0A494868401C486001280CD10848A5
:1030D000006810F0FF0F07D0502080F31188BFF375
:1030E0004F8FBFF36F8FFEE770470000C0000020D6
:1030F00004ED00E00849486828B1401E486001D14D
:1031000080F311887047502080F31188BFF34F8FF0
:10311000BFF36F8FFEE70000C000002070B50028ED
:1031200027D0144DA0F108046168E868014207D176
:10313000502080F31188BFF34F8FBFF36F8FFEE7EE
:1031400022683AB1502080F31188BFF34F8FBFF34C
:103150006F8FFEE78143616000F02CF96068696859
:10316000084468602046FFF705FDBDE8704000F0A8
:1031700053BD70BDA80000204FF0E0200021016188
:10318000816105494FF47A720968B1FBF2F1491E79
:1031900041610721016170475000002010B5FCF724
:1031A000F7FF114910280ED300F1E02090F8F0034A
:1031B0000A78904207D2502080F31188BFF34F8FD6
:1031C000BFF36F8FFEE709480068896800F4E0608C
:1031D000884207D9502080F31188BFF34F8FBFF387
:1031E0006F8FFEE710BD0000C00000200CED00E076
:1031F00010B5084B002200BF53F832401CB1521CDE
:10320000082AF9D310BD43F8321003EBC20148601D
:1032100010BD0000B403002070B515460E460446EC
:10322000FFF748FF94F944100020491C01D184F8AD
:10323000440094F94510491C01D184F84500FFF77A
:1032400059FFA06B28B92A46314604F1240000F04A
:1032500051F82046BDE87040FFF71CBE10B50200D3
:1032600014D00F48806B38B1502080F31188BFF321
:103270004F8FBFF36F8FFEE700F09CF800211046E0
:10328000FFF79CFA00F0C8FC002807D105494FF071
:1032900080500860BFF34F8FBFF36F8F10BD0000E9
:1032A0005400002004ED00E002498A6A0260496986
:1032B0004160704754000020014901204862704776
:1032C0005400002010B50C4650B109490968183166
:1032D000FFF7CCFE2046BDE810400121FFF76EBA93
:1032E000502080F31188BFF34F8FBFF36F8FFEE73D
:1032F0005400002070B514460D4668B10A490968AB
:103300001831FFF7CBFE0CB14FF0FF3521462846B0
:10331000BDE87040FFF752BA502080F31188BFF328
:103320004F8FBFF36F8FFEE75400002030B587B09A
:103330000024039405AA04A903A80494FFF772FECD
:10334000DDE903010094CDE90110002315A1174820
:10335000059A00F046FB164D002868631FD000F068
:10336000BDFC012809D0401C19D1502080F31188E0
:10337000BFF34F8FBFF36F8FFEE7502080F31188AC
:10338000BFF34F8FBFF36F8F4FF0FF3028630120E3
:10339000E8616C6107B0BDE8304000F045B807B0A7
:1033A00030BD000049444C4500000000552A00088B
:1033B000540000200248816B491C81637047000063
:1033C00054000020164810B5816B11B101214162F3
:1033D00010BD002141628169124A01E0B9B1491E64
:1033E00001EB810352F82330002BF7D001EB81036E
:1033F00002EB830202F1080453685B685360A34246
:1034000001D15B685360DA680260816110BD5020B1
:1034100080F31188BFF34F8FBFF36F8FFEE700007B
:1034200054000020F40300201CB5264908780190C0
:10343000FF20087008788DF800009DF800009DF8C6
:10344000002000F0F000904207D0502080F3118857
:10345000BFF34F8FBFF36F8FFEE79DF800001A4B4D
:1034600000F0500018700720986005E09DF80020DB
:1034700052008DF80020401E9DF800201206F5D461
:103480009860032807D0502080F31188BFF34F8F36
:10349000BFF36F8FFEE74FF440709860019808709B
:1034A0000A48016841F470010160016841F070410F
:1034B0000160FFF761FE00205860FCF733FE00203A
:1034C0001CBD000000E400E0C000002020ED00E092
:1034D00038B5049D18B153B1CAB181B120E0502074
:1034E00080F31188BFF34F8FBFF36F8FFEE750203B
:1034F00080F31188BFF34F8FBFF36F8FFEE750202B
:1035000080F31188BFF34F8FBFF36F8FFEE739B1A0
:10351000502080F31188BFF34F8FBFF36F8FFEE70A
:1035200050241C46012384F846302B460094FFF7B4
:10353000C1FA204638BD000070B50D46040025D004
:10354000FFF7B8FDD4E90F20216802FB001161608C
:103550000021A1632168A1600A46D4E90F01401E41
:1035600000FB0121E16021464FF0FF3001F8440FDC
:10357000487004F110008DB1FFF76AFD04F12400DA
:10358000FFF766FDFFF7B6FD012070BD502080F308
:103590001188BFF34F8FBFF36F8FFEE721690029BA
:1035A000F0D000F001FB0028ECD004494FF080502F
:1035B0000860BFF34F8FBFF36F8FE3E704ED00E0C8
:1035C0002DE9FF4782B01D468A464FF000080400EF
:1035D00003D0BAF1000F08D011E0502080F3118819
:1035E000BFF34F8FBFF36F8FFEE7206C38B15020D1
:1035F00080F31188BFF34F8FBFF36F8FFEE7022D6B
:103600000AD1E06B012807D0502080F31188BFF366
:103610004F8FBFF36F8FFEE700F00EFA3F4F4FF072
:1036200000094FF0805648B9049838B1502080F313
:103630001188BFF34F8FBFF36F8FFEE7FFF73AFD9F
:10364000A06BE16B884207D3022D05D00498D0B15E
:10365000B8F1000F1AD01EE02A4651462046FFF767
:1036600082F9616A19B104F1240000F09DFA20B1D9
:103670003E60BFF34F8FBFF36F8FFFF73BFD01201D
:1036800006B0BDE8F087FFF735FD22E06846FFF79A
:103690000BFE4FF00108FFF72DFDFFF78BFEFFF744
:1036A00009FD94F94400401C01D184F8449094F938
:1036B0004500401C01D184F84590FFF71BFD04A98B
:1036C000684600F027F930B12046FFF7E3FB00F031
:1036D000A3FA0020D4E7FFF7EDFCA06BE16B884272
:1036E00013D1FFF707FD04F110000499FFF7EAFD7D
:1036F0002046FFF7CFFB00F08FFA00289ED13E60F6
:10370000BFF34F8FBFF36F8F98E7FFF7F3FC2046AF
:10371000FFF7C0FB00F080FA90E7000004ED00E046
:103720002DE9F0471F4690468946040003D0B9F1C1
:10373000000F08D011E0502080F31188BFF34F8FA5
:10374000BFF36F8FFEE7206C38B1502080F31188F3
:10375000BFF34F8FBFF36F8FFEE7022F0AD1E06BED
:10376000012807D0502080F31188BFF34F8FBFF39B
:103770006F8FFEE7FFF712FD5020EFF3118680F305
:103780001188BFF34F8FBFF36F8FA06BE16B88423F
:1037900006D3022F04D0002086F31188BDE8F087FD
:1037A00094F945503A4649462046FFF7DCF8681C34
:1037B00004D06D1C84F845500120EDE7606A0028B4
:1037C000FAD004F1240000F0EFF90028F4D0B8F1A9
:1037D000000FF1D00121C8F80010EDE72DE9F747FF
:1037E000002683B08A46040003D0BAF1000F08D047
:1037F00011E0502080F31188BFF34F8FBFF36F8F1C
:10380000FEE7206C38B1502080F31188BFF34F8F52
:10381000BFF36F8FFEE700F00FF9DFF8F4804FF091
:1038200000094FF0805748B9059838B1502080F30F
:103830001188BFF34F8FBFF36F8FFEE7FFF73AFC9E
:10384000A56BC5B151462046FFF77AF86D1EA563FA
:10385000206950B104F1100000F0A6F928B1C8F8B1
:103860000070BFF34F8FBFF36F8FFFF743FC012052
:1038700006B0BDE8F087059808B11EB106E0FFF775
:1038800039FC27E06846FFF70FFD0126FFF732FC01
:10389000FFF790FDFFF70EFC94F94400401C01D1A6
:1038A00084F8449094F94500401C01D184F8459077
:1038B000FFF720FC05A9684600F02CF800282046F8
:1038C0000AD0FFF7E7FA00F0A7F92046FFF794F9CE
:1038D0000028B3D00020CBE7FFF78EF990B104F1B8
:1038E00024000599FFF7EEFC2046FFF7D3FA00F01D
:1038F00093F90028A2D1C8F80070BFF34F8FBFF32F
:103900006F8F9BE72046FFF7C5FA00F085F995E732
:1039100004ED00E02DE9F0410C46050011D0C4B1E2
:10392000FFF7C8FB174B5A696E682068911B471C4C
:1039300017D02F689B6A9F4219D0964217D801244E
:1039400010E0502080F31188BFF34F8FBFF36F8FCB
:10395000FEE7502080F31188BFF34F8FBFF36F8FC6
:10396000FEE70024FFF7C6FB2046BDE8F081884251
:1039700005D9401A20602846FFF796FCF1E70020A1
:103980002060DCE7540000202DE9FF5F8346DDE97D
:103990000E87994616468A469000FFF7B1FA050051
:1039A0001CD05C20FFF7ACFA040014D00020256383
:1039B00084F85900CDE90240CDE900874B463246F4
:1039C00051465846FFF787F82046FEF725FF0120AD
:1039D00004B0BDE8F09F2846FFF7A0FB4FF0FF3092
:1039E000F6E7F0B585B0DDE90B640A9DA6B1DCB160
:1039F0005C2700972663022684F85960002604AFEE
:103A0000CDE90246CDE90057FFF765F82046FEF7FD
:103A100003FF049805B0F0BD502080F31188BFF378
:103A20004F8FBFF36F8FFEE7502080F31188BFF3F5
:103A30004F8FBFF36F8FFEE70548C16919B1806BE7
:103A400018B1002070470120704702207047000025
:103A500054000020014840697047000054000020D5
:103A60002DE9F0412E4C0027A06B40B1206A401C8C
:103A70002062606A00B101273846BDE8F0816669BE
:103A8000761C666113D16068006838B1502080F3FD
:103A90001188BFF34F8FBFF36F8FFEE76068A16897
:103AA0006160A060A06A401CA062FFF773F9206B00
:103AB000DFF87080864209D36068006880B1606872
:103AC000C068C568686886420DD220632068C06AF5
:103AD00000EB800158F821000128CAD90127C8E766
:103AE0004FF0FF30F1E7281DFFF788FAA86A18B1F8
:103AF00005F11800FFF782FAE86AA169884200D947
:103B0000A06100EB800108EB8100291DFFF7C6FAD8
:103B1000E86A2168C96A8842CED30127CCE7000051
:103B200054000020F403002070B504004FF00001A1
:103B300033D01B4D2868844207D0502080F3118871
:103B4000BFF34F8FBFF36F8FFEE7206D38B1401E7C
:103B50002065E36CE26A9A421FD040B11DE050201C
:103B600080F31188BFF34F8FBFF36F8FFEE7201DE7
:103B7000FFF744FAE06CE062C0F13800A061E06A4F
:103B8000A969884200D9A861064900EB800001EBD1
:103B90008000211DFFF782FA0121084670BD000058
:103BA00054000020F403002070B5C068C46854B10C
:103BB00004F118000646FFF721FA144DA86B50B126
:103BC0003146134815E0502080F31188BFF34F8F22
:103BD000BFF36F8FFEE7201DFFF710FAE06AA969B7
:103BE000884200D9A8610B4900EB800001EB8000FE
:103BF000211DFFF753FAE06A2968C96A884202D991
:103C00000120686270BD002070BD000054000020DB
:103C10007C080020F40300202DE9F0472C4D0024FF
:103C20002746A86B38B1FFF745FAA86B401EA8637A
:103C3000A86B40B146E0502080F31188BFF34F8F4E
:103C4000BFF36F8FFEE72969224E0120D1B3A6F59D
:103C5000916980463068E0B1F068C46804F11800EA
:103C6000FFF7CCF9201DFFF7C9F9E06AA96988427E
:103C700000D9A86100EB800109EB8100211DFFF74D
:103C80000DFAE06A2968C96A8842E3D3C5F824803E
:103C9000E0E70CB1FFF77EF82C6A4CB14FEA08065A
:103CA000FFF7DEFE00B16E62641EF9D100202862CB
:103CB000686A38B10849012738070860BFF34F8F99
:103CC000BFF36F8FFFF716FA3846BDE8F0870000A4
:103CD000540000207C08002004ED00E010B586B000
:103CE000FEF702FE114CA068B8B1002003900490CA
:103CF00005AA04A903A8FFF79FF9DDE90321022023
:103D00008DE8070000230AA10B48059AFFF769FE1A
:103D1000E06010B106B0012010BD502080F3118882
:103D2000BFF34F8FBFF36F8FFEE7000090000020BE
:103D3000546D722053766300712E00082DE9FF4107
:103D40001E46134602000A9D4FF0000016D0144C88
:103D5000A768002F0FD0CDE900130292062917DAC9
:103D6000FFF76AFE02284FF000030FD000226946D9
:103D7000A068FFF725FC04B0BDE8F081502080F377
:103D80001188BFF34F8FBFF36F8FFEE72A46EEE730
:103D90000023324669463846FFF7C2FCEBE70000D5
:103DA00090000020043E0008000000000000000019
:103DB00000000000000000000002000011000000F0
:103DC0000000000000000000103E0008000000009D
:103DD00000000000000000000000000000020000E1
:103DE00030000000000000000000000000000000A3
:103DF000000000000102030406070809000000009B
:103E0000010203044144435F5461736B00000000EE
:103E10004D4158363637355F5350495F5461730012
:103E2000403E000800000020CC000000E42500080F
:103E30000C3F0008CC000020BC1F0000F425000847
:103E40000000000000000000000000000000000072
:103E50000000000000000000000000000000000062
:103E60000000000000000000000000000000000052
:103E70000000000000000000000000000000000042
:103E80000000000001000000100000000000000021
:103E90000024F4000000000000000000000000000A
:103EA0000000000000000000000000000000000012
:103EB0000000000000000000000000000000000002
:103EC00000000000000000000000000000000000F2
:103ED00000000000000000000000000000000000E2
:103EE00000000000000000000000000000000000D2
:103EF00000000000000000000000000000000000C2
:0C3F000000000000AAAAAAAA000000000D
:04000005080000ED02
:00000001FF
